S0180000536D61727420436F6E74726F6C6C65722E73726563C1
S1130000480D0220F1020000E7020000E9020000AE
S1130010EB020000ED020000EF020000000000000F
S113002000000000000000000000000081610000EA
S1130030E50200000000000021620000856200006B
S1130040E5020000E5020000E5020000E502000010
S1130050E5020000E5020000E5020000E502000000
S1130060E5020000E5020000E5020000E5020000F0
S1130070E5020000E5020000E5020000E5020000E0
S1130080E5020000E5020000E5020000E5020000D0
S1130090E5020000E5020000E5020000E5020000C0
S11300A0E5020000E5020000E5020000E5020000B0
S11300B0E5020000E5020000E5020000E5020000A0
S11300C0E5020000E5020000E5020000E502000090
S11300D0E5020000E5020000E5020000E502000080
S11300E0E5020000E502000000000000000000003E
S11300F000000000890A0000E5020000E50200009B
S1130100E5020000E5020000250E0000390E0000A3
S11301104D0E0000610E0000750E0000890E0000F7
S11301209D0E0000B10E0000E5020000E502000093
S1130130E5020000E5020000E5020000E50200001F
S1130140E5020000E5020000E5020000E50200000F
S1130150E5020000E5020000E5020000E5020000FF
S1130160E5020000E5020000E5020000E5020000EF
S1130170E5020000E5020000E5020000E5020000DF
S1130180E5020000E5020000E5020000E5020000CF
S1130190E5020000E5020000E5020000E5020000BF
S11301A0E5020000E5020000E5020000E5020000AF
S11301B0E5020000E5020000E5020000E50200009F
S11301C0E5020000E5020000E5020000E50200008F
S11301D0E5020000E5020000E5020000E50200007F
S11301E0E5020000E5020000E5020000E50200006F
S11301F0E5020000E5020000E5020000E50200005F
S1130200E5020000E5020000E5020000E50200004E
S1130210E5020000E5020000E5020000E50200003E
S1130220E5020000E5020000E5020000E50200002E
S1130230E5020000E5020000E5020000E50200001E
S1130240E5020000E5020000E5020000E50200000E
S1130250E5020000E5020000E5020000E5020000FE
S1130260E502000010B5054C237833B9044B13B1F3
S11302700448AFF300800123237010BDA4020020C2
S11302800000000054E000000C4B43B10C480D4941
S113029010B5AFF300800C48036823B910BD0A48B9
S11302A0036833B97047094B002BF7D0BDE8104001
S11302B01847064B002BF5D0184700BF000000007C
S11302C054E00000A802002054E0000000000000F8
S11302D008B5024B9847024B984708BD3505000006
S11302E0815C0000FEE7FEE7FEE7FEE7FEE7FEE7CF
S11302F008B5154B154A9A4209D0134B134A03E02B
S1130300116819600433043211498B42F8D3114B3C
S113031002E000221A6004330F4A9342F9D30F4BD0
S11303200F4A22F07F029A60D3F8882042F47002C8
S1130330C3F88820BFF34F8FBFF36F8F094B9847E3
S1130340094B9847FEE700BF0000002054E000007E
S1130350A4020020A4020020480D012000ED00E0CA
S113036000000000758700001D530000104B93F837
S1130370562102F0FE0242F0010283F8562193F85E
S11303803B2102F0F00242F0020283F83B2193F891
S1130390572102F0FE0242F0010283F8572193F83C
S11303A03B2102F00F0242F0200283F83B21704708
S11303B000800041064B4022C3F8A0204322C3F82A
S11303C08C20044A536943F400535361704700BFBF
S11303D0001C00400008004030B583B0144B98471F
S11303E0002032230AE01AB2002A19DA03F00F01BE
S11303F0104A0A44C0211176013301300328F2D98E
S11304000D4C0023009310230C4A0D4920460D4D3A
S1130410A84720460C4B98470C4B984703B030BD77
S113042002F1604202F56142C02182F80013E3E761
S1130430B5030000FCEC00E0E80C0120D80C01201E
S11304400034004065070000610800006D030000EF
S1130450104B93F8D92002F0FE0242F0010283F817
S1130460D92093F8BC2002F00F0242F0300283F846
S1130470BC2093F8D82002F0FE0242F0010283F877
S1130480D82093F8BC2002F0F00242F0030283F873
S1130490BC20704700800041064B4022C3F8DC209A
S11304A04322C3F88C20044A936943F40073936194
S11304B0704700BF001C00400008004030B583B006
S11304C0144B9847002036230AE01AB2002A19DA9E
S11304D003F00F01104A0A44C021117601330130A0
S11304E00328F2D90D4C0023009310230C4A0D4924
S11304F020460D4DA84720460C4B98470C4B984777
S113050003B030BD02F1604202F56142C02182F8BD
S11305100013E3E799040000FCEC00E07C0C0120EC
S1130520C80C01200020014165070000610800009B
S11305305104000008B5034B9847034B9847034BFD
S1130540984708BDE9090000D9030000BD04000074
S113055008B54FF47A70054B98470020044B984730
S113056081000448044B9847F3E700BFB17B0000C7
S1130570657F0000749A0000995B0000EFF310831C
S1130580036072B6BFF35F8F7047BFF35F8F03687A
S113059083F310887047000070B50D461646044674
S11305A068B151B1012034220649074B98472368AA
S11305B0324629462046984770BD0020F3E70020C4
S11305C0F1E700BF9C9A0000B908000070B50D4621
S11305D01646044668B151B101203D220649074B35
S11305E098476368324629462046984770BD0020E4
S11305F0F3E70020F1E700BF9C9A0000B90800006F
S113060008B53C30014B984708BD00BFD95C0000D9
S113061008B54030014B984708BD00BFD95C0000C5
S113062010B5C36A43B1028E541C04869954028ED9
S1130630438E9A4204D210BD1C30044B984710BD1F
S11306400023C3623C30024B9847F4E74D09000095
S1130650D95C000010B50446038F428F934209D041
S1130660426B591C0187D15C044B98472046044BCC
S1130670984710BD034B984710BD00BF9D0D000067
S1130680A30D0000AB0D000038B504461546C16348
S1130690A0F842200023A0F840300830064B9847C9
S11306A04FF0FF3104F14800044B984708B928463D
S11306B038BD6FF0070038BDA30D00001D5D0000BC
S11306C0F0B583B0044616460F46081C18BF012037
S11306D04FF492721C491D4B984704F12405284697
S11306E01B4B9847B04201D3002127E001A8194BC6
S11306F09847002323876687676307E0616B238F2E
S11307005A1C228719442846134B98472846104BF5
S113071098470028F2D101A8104B9847002104F112
S113072044000F4B984758B16FF0070009E04C1C88
S1130730A4B239442846084B98472146B142F6D31F
S1130740304603B0F0BD00BFB09A0000B908000005
S11307508D0900007D050000050900008B050000DF
S11307601D5D00002DE9F8430F4615461E4604465C
S1130770002846D0002946D0002A46D0002B46D176
S11307800020402229492A4B98473246294604F141
S11307902400284B9847002845D104F14406002141
S11307A03046254B9847051E28DB04F148090021F3
S11307B04846214B9847051E2BDB04F108083946AF
S11307C040461E4B9847054638BB00236363238786
S11307D063871B4B63601B4B23601B4BA3601B4B4A
S11307E0E3601B4B23611B4B6361012211464046AE
S11307F0194CA047012203214046A0472846BDE8E2
S1130800F8830020BDE70020BBE70020B9E7012002
S1130810B7E74846114B9847F0E748460F4CA047C6
S11308203046A047EAE76FF00C05E7E7B09A00000E
S1130830B9080000C1080000A15C0000050D00001B
S1130840C1060000890600005506000021060000CC
S11308501106000001060000B50D0000355D000022
S113086010B504467B220649003018BF0120054B11
S1130870984704F10800044B9847002010BD00BFBE
S1130880B09A0000B9080000890D000038B50C4684
S1130890054650B139B101208E220549054B9847D0
S11308A02560002038BD0020F6E70020F4E700BFF3
S11308B0B09A0000B908000000B900BE70470000FB
S11308C070B50E461546044678B181B18AB9002048
S11308D028220A490A4B98476B1E1D420BD16360BC
S11308E00020A060E060266070BD0020F0E70020DA
S11308F0EEE70120ECE76FF00C0070BDCC9A00002D
S1130900B908000038B50D460446A8B191B10120DC
S113091040220C490C4B9847E268A3689A420DD0D8
S1130920226861680B40D35C2B70A3680133A36019
S1130930002038BD0020EBE70020E9E76FF0090054
S113094038BD00BFCC9A0000B908000038B50D4688
S1130950044651220B49003018BF01200A4B984726
S11309602268E36861680B40D554E368A2689A1A68
S113097061688A4201D9591AA1600133E3600020F9
S113098038BD00BFCC9A0000B908000010B5044679
S113099067220549003018BF0120044B9847E068DE
S11309A0A368C01A10BD00BFCC9A0000B9080000AB
S11309B00346064A126822B1044A106803441360CD
S11309C070470349014A1160F6E700BFC0020020E6
S11309D0480D02204FF0FF3070474FF400534B6036
S11309E0002070470020704708B5084A13889BB25E
S11309F01380074B9847074B9847074B9847074B7B
S1130A00984740F6FF70064B984708BD00400041E8
S1130A10550A0000690A0000490A0000850A00001E
S1130A20250A000010F0010F08D0054A054B1A6290
S1130A30044B5A6843F6FD731A42F9D1704700BF5C
S1130A4001010100001C00400122014B5A71704752
S1130A5000080040034BDA6902F47C52DA61012297
S1130A601A74704700140040044A054B9A61044B01
S1130A701B6913F0020FFAD0704700BF062600036B
S1130A80001000407047000000B583B00D4B9B7808
S1130A90DBB20193019B13F0020F06D00A4B1B68D3
S1130AA01BB1084A5068984709E0019B13F0010FF5
S1130AB005D0054B5B6813B1024A5068984703B0F0
S1130AC05DF804FB00000241340D012070B489B0CC
S1130AD006466C460C4D0FCD0FC495E80F0084E814
S1130AE00F00002007280AD808AB03EB800353F853
S1130AF0203CB34201D00130F4E7C0B200E0002052
S1130B0009B070BC704700BFF09A000010B584694A
S1130B10237E13F0010F03D0A37D13F0010F12D134
S1130B20237E13F0020F03D0A37D13F0020F0FD125
S1130B30237E13F0040F15D0638B03F0370363B1E6
S1130B40FF23638310BD012323750368984710BDF9
S1130B50022323758368984710BD4368A16AC9B20C
S1130B60984710BD237EDB0900D110BD8023237676
S1130B70C3689847638B9BB26383F6E7064B98423E
S1130B8003D0064B984203D07047054B1960F8E731
S1130B90034B5960F8E700BF0034004000200141D6
S1130BA0C402002008B5044B98478000C0B22E3020
S1130BB000F0FE0008BD00BFCD0A000008B50D4BD3
S1130BC098470023012B0BD803EB4302D1000A4AB8
S1130BD00A4492F82020904209D00133DBB2F1E7B5
S1130BE040F26D2205490020054B98470023184622
S1130BF008BD00BFCD0A0000F09A00007C9B0000F5
S1130C00B908000038B504463C4B9847E36913F033
S1130C10010F22D100EB4003DA00394B13445A6A26
S1130C2002F01C02E36913F0030FFBD1236813F0F5
S1130C30020F0BD0236823F002032360E36913F04F
S1130C40030FFBD1E36913F0020FFBD142F0010261
S1130C502260E36913F0030FFBD1E36913F0010F82
S1130C60FBD100EB4003DA00254B13445B6A23609D
S1130C70E36913F0030FFBD100EB4003DA00204BD0
S1130C8013449B6A6360E36913F01F0FFBD14200B6
S1130C900244D1001A4B0B44DA6AA2605B6A13F473
S1130CA0005F0AD113F4C04F07D100EB4003DA0010
S1130CB0134B13441B8EA3810FE042000244D10066
S1130CC00F4B0B44198EA28961F30C02A28193F895
S1130CD03220A38962F34F33A381094A43001D18CC
S1130CE0E9000D46114491F83310A1732A4492F897
S1130CF0343084F83030002038BD00BFBD0B000014
S1130D00F09A000070B50C460646CD221849003012
S1130D1018BF0120174B98472046174B98470546A4
S1130D2008B1284670BDB46131462046134B98473C
S1130D302046134B9847002416E0410900F01F0297
S1130D40012393400F4A01F1200642F82630BFF3F5
S1130D504F8FBFF36F8F01F1600642F8263042F8DF
S1130D6021300130C0B20134032CE6D9D9E700BFE9
S1130D707C9B0000B9080000050C00007D0B0000FE
S1130D80A50B000000E100E08269136843F0020350
S1130D901360D36913F0030FFBD170478369996221
S1130DA07047836901229A757047836902229A7594
S1130DB07047000070B50C461546064640F22D22D9
S1130DC01649003018BF0120154B984734B1022C46
S1130DD004D0012C11D0032C17D070BDB36935B9E0
S1130DE001221A75B3692DB902221A7570BD012248
S1130DF09A75F7E702229A7570BDB36915B9042292
S1130E001A7570BD04229A7570BDB36915B180223C
S1130E109A75E2E780221A7570BD00BF7C9B0000C2
S1130E20B908000008B5024B1868024B984708BD82
S1130E30C40200200D0B000008B5024B1868024BD9
S1130E40984708BDC40200200D0B000008B5024BF2
S1130E501868024B984708BDC40200200D0B00001F
S1130E6008B5024B1868024B984708BDC40200201D
S1130E700D0B000008B5024B5868024B984708BD9B
S1130E80C40200200D0B000008B5024B5868024B49
S1130E90984708BDC40200200D0B000008B5024BA2
S1130EA05868024B984708BDC40200200D0B00008F
S1130EB008B5024B5868024B984708BDC40200208D
S1130EC00D0B0000E1B1F0B585B00D4606460024D7
S1130ED02346022C17D841F28833039305F10C03FF
S1130EE093E807008DE8070095E80E003046074FA9
S1130EF0B847074B9847034628B10134E4B2E8E702
S1130F00052318467047184605B0F0BDC93E0000D9
S1130F1089390000F8B101B338B50C46104D682288
S1130F20002128460F4B9847002128460E4B98472E
S1130F3008B9062038BD0022012108460B4B98470A
S1130F40A86518B1064B2360002038BD2846084B1D
S1130F509847062038BD012070470520704700BF20
S1130F60CC0200204F880000A1540000496A000010
S1130F70E554000010B58CB0002306930793089342
S1130F8009930A930B9304228DF80420029303938C
S1130F900493ADF8143000285ED004460CA92F4BFE
S1130FA041F8303D2E4B9847034668B1ABB1EBB1E5
S1130FB02BB3002B2CD0002B33D0002B3AD0002B9A
S1130FC041D018460CB010BD0CA9264B41F8183D71
S1130FD02046234B98470346E8E70CA9224B41F8E7
S1130FE0183D20461E4B98470346E0E70CA91F4BCB
S1130FF041F8183D20461A4B98470346D8E70CA9F8
S11310001B4B41F8183D2046154B98470346D0E743
S11310100CA9184B41F8183D2046114B984703463C
S1131020C9E70CA9144B41F8183D20460C4B9847CE
S11310300346C2E70CA9114B41F8183D2046084B62
S113104098470346BBE70CA90D4B41F8183D2046D1
S1131050034B98470346B4E70023B2E7989B00008C
S1131060C50E0000A09B0000A89B0000B49B0000DC
S1131070D49B0000F89B0000149C00002C9C0000F2
S1131080489C00002DE9F0418AB0804604AC00265B
S11310906660A660E660266166611C4B049307AD3A
S11310A095E807008DE8070094E80E004046184FC5
S11310B0B847184B049395E807008DE8070094E8B7
S11310C00E004046B847144B049395E807008DE89A
S11310D0070094E80E004046B847104B049395E887
S11310E007008DE8070094E80E004046B8470C4B13
S11310F0049395E807008DE8070094E80E00404645
S1131100B84730460AB0BDE8F08100BF549C0000E7
S1131110FD3E0000609C00006C9C0000789C000078
S1131120849C000030B583B005460C4602AA002317
S113113042F8043D0A210D4B9847034620B9019A11
S1131140511E0F2903D82270184603B030BD40F257
S1131150B233074A07490848084CA04729460848BB
S1131160A0470848A0470523EEE700BF7D370000ED
S1131170F89D00003CA1000050A10000995B000014
S1131180FCA30000A0DC000030B583B005460C468B
S113119002AA002342F8043D0A210C4B9847034657
S11311A018B9019AFF2A03D86270184603B030BDFB
S11311B040F2CB33064A07490748084CA047294662
S11311C00748A0470748A0470523EEE77D370000FE
S11311D0109E00003CA1000050A10000995B00009B
S11311E028A40000A0DC000030B583B005460C46FE
S11311F002AA002342F8043D0A210C4B98470346F7
S113120018B9019A032A03D8A270184603B030BD56
S113121040F2E733064A07490748084CA0472946E5
S11312200748A0470748A0470523EEE77D3700009D
S11312302C9E00003CA1000050A10000995B00001E
S113124060A40000A0DC0000002861D038B504468A
S11312503549364B984700285CD035492046334BF6
S11312609847002858D033492046304B984708B94E
S1131270022038BD304920462C4B984708B903203A
S113128038BD2E492046294B984708B9042038BD5B
S11312902B492046254B984708B9052038BD2949D4
S11312A02046224B984708B9062038BD26492046D7
S11312B01E4B984708B9072038BD244920461B4BCC
S11312C0984708B9082038BD21492046174B98474C
S11312D008B9092038BD1F492046144B9847E8B186
S11312E01D492046114B9847D0B11C4920460F4B4D
S11312F09847B8B140F25933194A1A491A481B4D54
S1131300A84721461A48A8471A48A847102038BDBC
S113131010207047002038BD012038BD0A2038BD98
S11313200B2038BD0C2038BD64A600007D8D000064
S11313306CA6000074A600007CA6000088A600002D
S113134094A60000A0A60000ACA60000BCA6000065
S1131350CCA60000D8A60000E4A60000F0A6000079
S1131360949E00003CA1000050A10000995B000085
S1131370FCA60000A0DC000070B582B01446002278
S11313800192009200282CD031B14A6822B15268EF
S113139012B10CB1012B10D040F27533214A22490D
S11313A02248234CA0472348A0472348A0470624AB
S11313B00025CCB1204602B070BD0092137813B161
S11313C025460024F5E740F27F33164A16491748AC
S11313D0174DA8471948A8471748A8472546022487
S11313E0E7E708240025E4E70098154B98470646EC
S11313F040B166B18EB1002EDCD03046114B984717
S11314000446D7E76846104B98470646F1E701A91A
S113141068460E4B98470646ECE701980C4B9847F4
S11314202870E8E7A89E00003CA1000050A100003D
S1131430995B000018A70000A0DC000048A700008A
S1131440F1340000C13A0000353400005D3600007C
S11314504912000070B50646154603292ED8DFE868
S113146001F002060A0E11461C4B984770BD114646
S11314701B4B984770BD11461A4B984770BD4122CB
S11314800146281D184B9847AB78012B0FD0022B2F
S113149010D040F21743154A15491648164CA04778
S11314A0A9781648A0471648A047052070BD00201B
S11314B0E87070BD0123EB70002070BD0C4640F253
S11314C01F430A4A0A490B480B4DA8472246314696
S11314D00C48A8470A48A847052070BD25110000FC
S11314E089110000E911000005880000AC9F00008C
S11314F03CA1000050A10000995B000064AA000018
S1131500A0DC000080AA0000F0B583B00F460023E1
S1131510019302AB43F8080D18461B4B9847054648
S113152020B145B1002D2BD1002411E00098174BB8
S113153098470546F5E701A96846154B98470546BF
S1131540F0E70134E4B201A96846114B9847B8B9F1
S11315500198A8B1A5B93A4621460E4B98470546CD
S11315600028EED040F247430B4A0C490C480D4E7C
S1131570B047224601990C48B0470C48B047E0E711
S1131580284603B0F0BD00BF3534000055350000D7
S11315905D36000055140000C49F00003CA100000B
S11315A0B0AA0000995B0000C8AA0000A0DC0000FB
S11315B02DE9F041A8B11646DCB201B30AB1002C02
S11315C02BD140F272432F4A2F493048304CA04768
S11315D03048A0473048A0474FF006084046BDE8D1
S11315E0F0814FF48D63274A27492848284CA047A7
S11315F02A48A0472848A0474FF00208EEE740F2E7
S11316006D43204A20492148214CA0472448A04743
S11316102148A0474FF00208E0E74D68ADB16B6880
S11316209BB14FF00008002CD8D0002DD6D06F68A5
S1131630314638461B4B98471B4B98478046A0B908
S11316404536013CE4B22D68EDE740F277430D4A9C
S11316500D490E480E4CA0471448A0470E48A04719
S1131660FF2333704FF00008B8E740F28943054A7E
S113167005490648064CA04739460D48A047064888
S1131680A047ABE7DC9F00003CA1000050A1000094
S1131690995B000038AB0000A0DC0000F4AA000055
S11316A014AB000009150000C13A000060AB000053
S11316B080AB000010B582B000240194002831D022
S11316C0144649B1496839B14A682AB1002C2BD073
S11316D0012B10D006230BE040F2FA23144A1549DB
S11316E01548164CA0471648A0471648A0470223A1
S11316F0184602B010BD02A840F8042D124B9847BA
S1131700124B984703460028F2D102AA52F8040D5E
S11317100F49104B984748B1214601980E4B984702
S11317200346E5E70823E3E70623E1E70423DFE7CD
S1131730FC9F00003CA1000050A10000995B000048
S1131740A8AB0000A0DC00008D340000C13A00000A
S1131750CCAB00000B8F00001522000070B592B0D6
S113176006460D460AAC202200212046204B98470D
S1131770049400238DF81430069307930893ADF86E
S1131780243028461B4B9847044618B13CB12046E8
S113179012B070BD3046184B98470446F6E70095E2
S11317A0164B174A20210AA8164DA847164B039337
S11317B007AB93E807008DE8070004AB0ECB304677
S11317C0124DA84705460028E1D040F64713104AB9
S11317D010491148114CA0472A460AA91048A047AD
S11317E01048A0472846104B98470446CFE700BF4F
S11317F04F880000093B0000093900006CAD00006F
S113180020AD0000F98C0000F0490200C93E000040
S113181078A000003CA1000050A10000995B0000EA
S113182078AD0000A0DC000089390000F0B5BFB03D
S113183006460F4615460CACC822002120462E4B06
S11318409847069400238DF81C30089309930A9353
S1131850ADF82C3035B100248CB1ACB1CCB12046FC
S11318603FB0F0BD40F66713244A25492548264C6D
S1131870A0472648A0472648A0470524ECE7384659
S1131880244B98470446E8E73046234B98470446E0
S1131890E4E72B4613F8022B05F1430105F164003C
S11318A06D780595049003910293019200971B4B68
S11318B01B4AC8210CA81B4DA84709AB93E8070095
S11318C08DE8070006AB0ECB3046174DA8470546FA
S11318D00028C4D040F68913084A094909480A4C2B
S11318E0A0472A460CA91148A0470948A047284602
S11318F00F4B98470446B2E74F88000090A00000C1
S11319003CA1000050A10000995B0000B8AD0000AC
S1131910A0DC0000093B000009390000E8AD00002C
S1131920F4AD0000F98C0000FD3E000010AE000094
S1131930893900002DE9F0418AB080460D461446ED
S11319401E46214B049302238DF814301F4B06933B
S11319501F4B07930891ADF8242009B106B1E2B9F1
S113196040F60D331B4A1C491C481D4FB8471D48FF
S1131970B8471D48B847052088B1A0B100BB002373
S113198033702946E4B10B78102B19D8337801331E
S11319903370013CE4B24531F4E70020ECE7404603
S11319A0124B9847E9E70AAB13E907008DE80700F3
S11319B004AB0ECB40460E4FB8470E4B9847DDE7BD
S11319C00AB0BDE8F08100BF0CB0000018B0000000
S11319D0B115000000A100003CA1000020B00000EF
S11319E0995B000038B00000A0DC00000939000059
S11319F0FD3E00008939000030B591B005460C4623
S1131A00204B0A9302228DF82C201F4B0C931F4B62
S1131A100D930E910123ADF83C301D4904918DF8CE
S1131A2014201C4A06921C4A0792E2180892ADF848
S1131A3024301A4B98470346A0B90CB303232370F0
S1131A401023637010AB13E907008DE807000AAB9D
S1131A500ECB2846124CA047034630B11846114B12
S1131A6098470346184611B030BD07AB93E807000A
S1131A708DE8070004AB0ECB2846A0470346EDE7EC
S1131A800523EFE768B0000078B00000B516000049
S1131A9084B0000090B00000791300000939000000
S1131AA0FD3E00008939000000B58BB00E4B009359
S1131AB00E4B1B6801930E4B02930E4B1B68039352
S1131AC00D4B04930D4B1B6805930D4B06930D4B67
S1131AD01B6807930023089309936A460A4B9847A7
S1131AE00BB05DF804FB00BF500000204C00002048
S1131AF028000020240000201400002010000020F2
S1131B000400002000000020353F000010B530B173
S1131B10D0F8A0201AB1D0F8A410904710BD40F21C
S1131B207513054A05490648064CA0470648A047D0
S1131B300648A04710BD00BF1CB1000020B2000041
S1131B4050A10000995B00002CB20000A0DC000052
S1131B5010B518B10021074B984710BD40F2E3239C
S1131B60054A06490648074CA0470748A0470748C6
S1131B70A04710BD413C00003CB1000020B2000071
S1131B8020B00000995B00005CB20000A0DC000003
S1131B9010B518B10221074B984710BD40F2CE236F
S1131BA0054A06490648074CA0470748A047074886
S1131BB0A04710BD413C000058B1000020B2000015
S1131BC050A10000995B000088B20000A0DC000076
S1131BD010B518B10121074B984710BD40F2B92345
S1131BE0054A06490648074CA0470748A047074846
S1131BF0A04710BD413C000078B1000020B20000B5
S1131C0050A10000995B000088B20000A0DC000035
S1131C10F0B583B00E46144602AA002342F8043DF0
S1131C200A211C4B9847054668B9019B83B90223D6
S1131C302372D4F8A83003B3019AC2B1D4F8AC200B
S1131C402146062098472846134B984703B0F0BD19
S1131C50032323726323114A11491248124FB847D0
S1131C60019A31461148B8471148B847E1E7D4F81A
S1131C70AC20214605209847E5E77B23074A08491D
S1131C800848094CA04731460A48A0470848A047DD
S1131C90D9E700BF7D370000C13A000094B10000CD
S1131CA020B2000050A10000995B0000B4B2000013
S1131CB0A0DC0000F0B2000030B585B0054600237A
S1131CC003930291019303A902A81B4B984738B1CF
S1131CD004460021FCB1002C2AD1002005B030BDFF
S1131CE001AA0A210398154B9847044688B901991B
S1131CF00B29EFD94FF4CA73114A12491248134CF5
S1131D00A04703991248A0471248A0470524002180
S1131D10E0E70021DEE728460F4B984730B190F802
S1131D205020002AD7D10D4B9847D4E70524D2E799
S1131D3020460B4B9847D1E75D3600007D37000005
S1131D40ACB1000020B2000050A10000995B00007B
S1131D5030B30000A0DC0000593C00000D1B000063
S1131D60C13A000030B585B00546002303930291C3
S1131D70019303A902A8214B9847044690B1C4B922
S1131D8001990B2916DD40F2D1131D4A1D491E4845
S1131D901E4CA04703991E48A0471E48A04705248F
S1131DA0002107E001AA0A2103981B4B9847044627
S1131DB0E5E700211CB1ECB9002005B030BD284690
S1131DC0164B9847A0B103220272D0F8B0201AB182
S1131DD0D0F8B4109047EEE74FF4F373084A09497A
S1131DE00F480A4DA8470F48A8470A48A847E2E702
S1131DF00524E0E720460C4B9847DEE75D360000FB
S1131E00C0B1000020B2000050A10000995B0000A6
S1131E1058B30000A0DC00007D370000593C0000EE
S1131E20B0AA000084B30000C13A000070B584B0C9
S1131E300646002303930293019102A901A8174BBC
S1131E409847044658B124BB039D6B1E0F2B13D82F
S1131E50EDB22846124B984740B1052419E003AA75
S1131E600A2102980F4B98470446ECE72A460321BF
S1131E7030460D4B98470CE040F21F230B4A0C49A7
S1131E800C480D4CA04702990C48A0470C48A047A9
S1131E90052420460B4B984704B070BD5D36000006
S1131EA0093B00007D370000F13B0000D8B1000081
S1131EB020B2000050A10000995B0000B8B30000FC
S1131EC0A0DC0000C13A000030B583B00D46002309
S1131ED0019378B181B101A90A4B984770B90024E4
S1131EE02CB90198436E5BB1026E2946984720468F
S1131EF003B030BD0824F3E70624F1E70824EFE734
S1131F000B24F4E7C53B000070B582B000230093B6
S1131F10A8B1054699B108460191214B984704465A
S1131F2078B19CB14CB9009E1E4930461E4B98476F
S1131F3090B1019928461D4B9847002C2BD102B033
S1131F4070BD01A81A4B98470446EAE7694601A800
S1131F50184B98470446E5E717493046174B98470E
S1131F6078B117493046154B984778B11549304632
S1131F70124B98470028E0D101992846124B984704
S1131F80DBE701992846114B9847D6E70199284683
S1131F900F4B9847D1E720460E4B9847CFE700BF39
S1131FA055350000E4B300002D8E0000B91C00007C
S1131FB08D3400005D360000ECB300007D8D000020
S1131FC0F4B3000000B40000C91E0000651D000049
S1131FD02D1E0000C13A000070B584B000230293A6
S1131FE0019300282AD0064641B308460391204BAA
S1131FF09847044690B1BCB1ECB9019D0B2D1BD997
S1132000B1231C4A1C491D481D4CA04702991D4878
S1132010A0471D48A047002505240DE002A903A8F8
S11320201A4B98470446E6E701AA0A210298184B7E
S113203098470446E0E7002514B1ACB904B070BD7C
S113204029463046134B984706460028F5D002A986
S113205003A80E4B984704460028EED13246294681
S113206002980D4B9847E8E720460C4B9847E5E764
S1132070F1340000ECB1000020B2000050A10000D7
S1132080995B000008B40000A0DC00005D3600008D
S11320907D370000593C0000111C0000C13A0000CB
S11320A030B589B00023079306934FF40042ADF88E
S11320B01620ADF81420029303930493019105466E
S11320C0F8B101B307A901A8304B98470446E4B11D
S11320D034B9069800F50043B3F5803F1CD30524BA
S11320E01CB344B334B9069800F50043B3F5803FFC
S11320F028D30524002C2DD0002C42D1002009B077
S113210030BD0124E3E70124E1E706AA0A21079888
S11321101F4B98470446DBE70DF1160100B21D4B37
S113212098470028DCD00124DAE707A901A8174B57
S113213098470446D5E706AA0A210798144B9847FE
S11321400446CFE705A900B2134B98470028D1D025
S11321500124CFE7BDF81630ADF808304FF4004342
S1132160ADF80A30ADF80C30BDF81430ADF81030CD
S1132170FF238DF8123002AA04212846074B984702
S1132180BAE72046064B9847B9E700BF5D36000022
S11321907D3700004D3B0000853B00000D3C0000F6
S11321A0C13A000030B583B00023009398B10546CE
S11321B089B108460191104B9847044668B18CB127
S11321C044B90E4900980E4B984718B10199284616
S11321D00C4B984764B903B030BD01A80A4B98472B
S11321E00446ECE7694601A8084B98470446E7E72C
S11321F02046074B9847EEE75535000034B40000FD
S11322002D8E0000A12000008D3400005D360000FA
S1132210C13A000030B585B0044600230393029010
S1132220019310B10D46037873B94FF43F731F4AFD
S11322301F492048204DA84721462048A847204848
S1132240A847062005B030BD1E4B98470128ECD99D
S1132250002DEAD003A902A81B4B98470346A8B156
S1132260D3B17BB9019A012A1DD94FF447730F4AA0
S11322700F491048104CA04703991448A047104830
S1132280A04705231846124B9847DBE703A902A889
S11322900D4B98470346E3E701AA0A2103980D4B27
S11322A098470346DDE72A70ECE700BF08B2000058
S11322B020B2000050A10000995B000038B4000077
S11322C0A0DC0000918D00005D3600006CB40000BD
S11322D0C13A00007D37000000B583B003238DF8B8
S11322E0073020B108460DF10701024B984703B0AF
S11322F05DF804FB1522000008B5014B984708BDA2
S1132300C528000008B5014B984708BD15290000F1
S113231010B5014CA04710BD6529000008B5014B5C
S1132320984708BDDD2B000010B58AB0044604AB05
S11323300022059209920D4A049202228DF814207B
S11323400B4A06920B4A079208912C22ADF82420DE
S11323500AAA12E907008DE807000ECB2046064CB6
S1132360A047064B98470AB010BD00BFA4B90000AF
S1132370B0B90000DD270000FD3E000089390000EF
S113238010B58CB08DF82F30002305930693079376
S1132390089309930A9340B94FF0800383F311889B
S11323A0BFF36F8FBFF34F8FFEE7044605910323FE
S11323B08DF8183007920B4B08930DF12F030993F6
S11323C00123ADF8283008AB93E807008DE8070037
S11323D005AB0ECB2046044CA047044B98470CB0E9
S11323E010BD00BF952C0000FD3E0000893900009F
S11323F030B583B00023019360B10D46044601AAB1
S11324000A21134B984700BB019B042B0FD86B7216
S113241001201BE040F233330E4A0F490F48104CA1
S1132420A0471048A0471048A04700200EE040F203
S11324304633084A08490948094DA84721460B482C
S1132440A8470948A847002000E0012003B030BD98
S11324507D37000058B500003CA1000050A10000E9
S1132460995B000040BB0000A0DC000068BB0000DA
S113247030B583B00023019360B10D46044601AA30
S11324800A21134B984700BB019B092B0FD8AB7251
S113249001201BE040F25A330E4A0F490F48104CFA
S11324A0A0471048A0471048A04700200EE040F283
S11324B06E33084A08490948094DA84721460B4884
S11324C0A8470948A847002000E0012003B030BD18
S11324D07D37000070B500003CA1000050A1000051
S11324E0995B0000B4BB0000A0DC0000E8BB000066
S11324F030B583B00023019360B10D46044601AAB0
S11325000A21134B984700BB019B092B0FD82B7250
S113251001201BE040F2B3330E4A0F490F48104C20
S1132520A0471048A0471048A04700200EE040F202
S1132530C633084A08490948094DA84721460B48AB
S1132540A8470948A847002000E0012003B030BD97
S11325507D37000094B500003CA1000050A10000AC
S1132560995B000040BC0000A0DC00006CBC0000D3
S113257070B582B01D46002301930093A8B11446A0
S113258001B34B68F3B15B68E3B10AB1002D27D105
S113259040F26B43264A27492748284CA04728483D
S11325A0A0472848A047062018E040F26143204A8B
S11325B020492148214CA0472348A0472148A0474F
S11325C008200BE040F26643194A1A491A481B4C8A
S11325D0A0471E48A0471B48A047022002B070BD78
S11325E002A840F8043D1A4B9847064668B13EB924
S11325F0019B1B787BB1694601A8164B9847064698
S11326007EB13046144B9847E8E7694601A8114B60
S113261098470646EBE72A4610492046104B984750
S1132620EEE72A46009920460D4B9847E9E700BF9C
S113263044B600003CA1000050A10000995B0000DA
S1132640CCBE0000A0DC000080BE0000A4BE0000E0
S1132650353400005D360000C13A000004BF0000BC
S1132660C58D00002DE9F041A0B10C4605468B7ADA
S1132670012B1DD9022B24D04FF46873234A24491B
S11326802448254CA0472548A0472548A0470020BA
S1132690BDE8F08140F281331C4A1D491D481E4C9F
S11326A0A0472048A0471E48A0470020BDE8F0816D
S11326B02022014604F10B001B4B98470120BDE882
S11326C0F0811A4B98470646431F012B0DD940F25F
S11326D09A330E4A0E490F480F4CA0471448A0479E
S11326E00F48A0470020BDE8F08103222946204678
S11326F0DFF83480C0470027E770B21EE91C201DB4
S1132700C047E7710120BDE8F08100BF60B600005A
S11327103CA1000050A10000995B00005CBF0000D8
S1132720A0DC000040BC0000C58D0000918D0000BD
S11327300CBF000030B583B00D4600230193009018
S113274001A96846204B9847044650B18CB1B4B1F6
S1132750ECB114B3002C28D0002C2CD0204603B0AC
S113276030BD29460198194B98470028EED105241D
S1132770ECE701A96846144B98470446E7E7294665
S11327800198134B98470028E2D10524E0E701A9FA
S113279068460D4B98470446DBE7294601980D4BE4
S11327A098470028D6D10524D4E701A96846064BEA
S11327B098470446D0E729460198074B98470028D4
S11327C0CCD10524CAE700BF5D360000F123000028
S11327D07124000065260000F124000030B583B0A8
S11327E000240194002850D0144699B1496889B155
S11327F04A687AB10CB12C2B1AD040F22D43244AEA
S113280024492548254CA0472548A0472548A047EA
S113281002200BE04FF485631D4A1E491E481F4CDD
S1132820A0472148A0471F48A047022003B030BD5D
S113283002A840F8042D1D4B9847054628B14DB118
S11328406DB1052D11D00020F0E70198184B984781
S11328500546F4E70198174B98470546F0E72146EB
S11328600198154B98470546EBE740F24C43084A5C
S113287008490948094CA04701991048A04709484C
S1132880A04728460E4B9847D0E70220CEE700BF6A
S11328907CB600003CA1000050A10000995B000040
S11328A0B4BF0000A0DC000090BF0000353400007D
S11328B055350000F134000035270000E8BF000062
S11328C0C13A000010B58AB004460023059306936C
S11328D00793089309930B4B04930B4B98470346B8
S11328E010B118460AB010BD0AAB13E907008DE811
S11328F0070004AB0ECB2046044CA047044B98477A
S11329000346EEE7489C000009390000FD3E000044
S11329108939000010B58AB0044600230593069354
S11329200793089309930B4B04930B4B9847034667
S113293010B118460AB010BD0AAB13E907008DE8C0
S1132940070004AB0ECB2046044CA047044B984729
S11329500346EEE778C6000009390000FD3E00009A
S1132960893900002DE9F04192B0074688461546A2
S11329701E460AAC202200212046304B98470023F3
S113298005930993049402238DF814302C4B069379
S11329902C4B07930895ADF8246038462A4B98478A
S11329A090B905B1EEB940F2AE73284A28492948D6
S11329B0294CA0472948A0472948A0470524ACB181
S11329C0204612B0BDE8F081044640F2AA731F4AC3
S11329D01F492048204DA8472248A8472048A84717
S11329E0EDE74046204B98470446E8E7CDF80080E1
S11329F01E4B1F4A20210AA81E4DA84707AB93E887
S1132A0007008DE8070004AB0ECB38461A4DA847E3
S1132A1005460028D4D040F2C2730C4A0C490D4834
S1132A200D4CA0472A460AA91448A0470C48A047C1
S1132A302846134B98470446C2E700BF4F8800005E
S1132A4080C700007125000009390000A8B8000003
S1132A503CA1000050A10000995B00008CC700005D
S1132A60A0DC000060C50000093B0000D0C70000E6
S1132A7020AD0000F98C0000FD3E0000DCC7000022
S1132A808939000008B540B94FF0800383F31188F9
S1132A90BFF36F8FBFF34F8FFEE76030014B984752
S1132AA008BD00BFE554000008B540B94FF08003ED
S1132AB083F31188BFF36F8FBFF34F8FFEE70021BD
S1132AC06030014B984708BDA154000008B540B9D7
S1132AD04FF0800383F31188BFF36F8FBFF34F8FE1
S1132AE0FEE76030014B984708BD00BF0555000064
S1132AF008B540B94FF0800383F31188BFF36F8F9B
S1132B00BFF34F8FFEE76030014B984708BD00BF0D
S1132B1015550000F8B5002844D004460D4600239E
S1132B20254A2649264EB047064628B90123254A98
S1132B3025492046224FB8472046244B984794F80D
S1132B40E2702046224B984756B9012F08D0052F32
S1132B5006D002231F4A20492046194EB047064694
S1132B60F6B92046194B984794F8E0302B7094F846
S1132B70E130AB7094F8E230EB7094F8E43085F80F
S1132B802F3094F8E33085F82E3094F8E63085F849
S1132B90313094F8E53085F8303020460C4B9847B6
S1132BA03046F8BD4FF0800383F31188BFF36F8F75
S1132BB0BFF34F8FFEE700BF28C8000030C80000F5
S1132BC0812300003CC8000044C80000CD2A000056
S1132BD0F12A000050C8000058C8000070B58CB03D
S1132BE005460C462C22002101A81E4B9847284676
S1132BF01D4B98470646E0B93CB3214628461B4B7B
S1132C00984701A928461A4B98479DF80D306370E0
S1132C1001AB03CB6060A16020220DF10F0104F130
S1132C200D00144B98479DF80E30237330460CB0BA
S1132C3070BD4FF4DE63104A10491148114CA0478F
S1132C401148A0471148A047F0E740F2F4630A4A4C
S1132C500A490B480B4CA0470D48A0470B48A04716
S1132C600526E3E74F88000009390000152B000012
S1132C7029230000C58D0000C4B800003CA1000059
S1132C8050A10000995B000060C50000A0DC0000BA
S1132C9064C8000070B582B00024019400283DD0BF
S1132CA0044699B1496889B1496879B10AB1012BDF
S1132CB01BD040F2F6231A4A1A491B481B4CA04762
S1132CC01B48A0471B48A04706250BE040F2F12310
S1132CD0134A14491448154CA0471748A0471548EF
S1132CE0A0470625284602B070BD167802A840F811
S1132CF0041D124B9847124B984705460028F1D102
S1132D002046104B984733460022019920460E4D29
S1132D10A847054620460D4B9847E3E70825E1E719
S1132D20E4B800003CA1000050A10000995B000041
S1132D30C4C80000A0DC000094C800008D3400006A
S1132D40C13A0000CD2A000089310000F12A0000B8
S1132D50034670B1B1B14FF6FF72A3F8EC204FF007
S1132D60FF31C3F8E81083F8E020FF22A3F8EE2037
S1132D7070474FF0800383F31188BFF36F8FBFF365
S1132D804F8FFEE70022C3F8E020C3F8E420C3F825
S1132D90E820C3F8EC20C3F8F020022283F8E120F5
S1132DA083F8E220D7E7000030B583B00446084634
S1132DB0154602AA002342F8043D10210D4B984702
S1132DC0034628B9019AB2F5803F0CD292B200E0D2
S1132DD000221BB9012C09D9022C09D01846064B34
S1132DE0984703B030BD05230022F2E7AA81F5E736
S1132DF02A82F3E77D370000C13A000030B583B082
S1132E0004460846154602AA002342F8043D0A2156
S1132E10104B9847034620B9019AFF2A0CD8D2B226
S1132E2000E000221BB964B96978032907D0184669
S1132E30094B984703B030BD05230022F2E7EA703E
S1132E40F5E7013CE4B2012CF1D8A9780329EED1CD
S1132E506A71ECE77D370000C13A000030B583B0F9
S1132E6004460846154602AA002342F8043D0A21F6
S1132E70104B9847034620B9019AFF2A0CD8D2B2C6
S1132E8000E000221BB964B96978032907D0184609
S1132E90094B984703B030BD05230022F2E72A719D
S1132EA0F5E7013CE4B2012CF1D8A9780329EED16D
S1132EB0AA71ECE77D370000C13A00002DE9F0412A
S1132EC082B0804610461F46002301930E4631B15E
S1132ED0022904D0012902D0042406250FE001AA06
S1132EE00A21144B9847034620B9019C082C17D893
S1132EF0E4B200E0042418460F4B984705465DB938
S1132F008EB97C70012C07D0052C05D0032C0CD075
S1132F1001214046094B9847284602B0BDE8F0819C
S1132F2004240523E7E7BC70ECE701214046034B8A
S1132F309847F1E77D370000C13A0000512D0000A9
S1132F4030B583B005460C4602AA002342F8043D7E
S1132F5010210D4B9847034618B9019A002A05DB46
S1132F60A2601846094B984703B030BDE623084ACF
S1132F7008490948094CA04729460948A047094877
S1132F80A0470523EDE700BF7D370000C13A0000EC
S1132F90E8CA000020B2000050A10000995B0000C4
S1132FA038CB0000A0DC000030B583B005460C46E9
S1132FB002AA002342F8043D0A21144B9847024612
S1132FC0E0B9019B092B0BDCBBB1032B15D0082BFB
S1132FD013D0092B11D0072B15D0FF2323700DE03C
S1132FE0FF230B4A0B490C480C4CA04729460C48BC
S1132FF0A0470C48A047052200E0237010460A4B66
S1133000984703B030BD2370F8E700BF7D37000058
S113301000CB000020B2000050A10000995B00002A
S113302060CB0000A0DC0000C13A000038B51546B2
S11330301C460239052926D8DFE801F003090F14DC
S1133040191F049B22462946104CA04738BD049AF8
S1133050214628460E4B984738BD049920460D4B0F
S1133060984738BD049920460B4B984738BD049ABD
S113307021462846094B984738BD049A21462846DC
S1133080074B984738BD002038BD00BFBD2E000057
S1133090A92D0000412F0000A92F0000FD2D0000E4
S11330A05D2E000039B110B502290DD882789A42FC
S11330B008D0012010BD4378934201D0012070470D
S11330C000207047002010BD4FF40473054A0649E0
S11330D00648074CA0470748A0470748A0470020D8
S11330E010BD00BF1CCB000020B20000B0AA00003D
S11330F0995B000084CB0000A0DC000070B58EB0AA
S113310005460E4614463222002101A81A4B984760
S113311023788DF8043063788DF80630A3788DF821
S1133120073023798DF83330E3788DF83230A37982
S11331308DF8353063798DF83430104B0293039356
S11331400F4B1868CDF8110009238DF810300623B1
S11331508DF80530D5F8B8302BB136B101AA01216C
S11331602846084B98470EB070BD01AA0021284696
S1133170044B9847F7E700BF4F88000046464600D7
S1133180B4CB0000D53B00002DE9F04F85B00024FE
S11331900294002852D00546002951D000F1E006DF
S11331A002B10124984608460391264B984781466C
S11331B0E0B1B9F1000F1ED0B9F1000F21D195F89B
S11331C0E1B095F8E2A00027029BF3B10134E4B228
S11331D000964246214628461B4FB847074602A997
S11331E003A81A4B98470028EED00EE00398184B1A
S11331F098478146DDE702A903A8144B9847814606
S1133200DAE74FF0040AD346002753465A464146AC
S11332103046104CA04730B9B9F1000F09D13846F7
S113322005B0BDE8F08F3246414628460A4B984720
S1133230F2E74846094B98470746F0E70227EEE7CE
S11332400627ECE7553500002D3000005D36000000
S1133250F1340000A5300000FD300000C13A000048
S113326038B578B104460D46074B98470023012230
S113327029462046054DA84705462046044B984755
S1133280284638BD0825FBE7CD2A00008931000017
S1133290F12A000038B578B104460D46074B98472B
S11332A001231A4629462046054DA84705462046CF
S11332B0044B9847284638BD0825FBE7CD2A000073
S11332C089310000F12A000038B578B104460D4672
S11332D0074B98470223012229462046054DA8475B
S11332E005462046044B9847284638BD0825FBE789
S11332F0CD2A000089310000F12A000010B50C46E7
S113330040F20111074B984728B1B0F5807F05D8EA
S11333100023237010BD0123237010BD02232370EA
S113332010BD00BFEF8D0000F0B583B00446032349
S11333308DF807300F4681B188B100268EB14EB9A1
S113334001233B703A212046194B98470546A0B902
S113335000233B70304603B0F0BD0126EEE70126A2
S1133360ECE70DF107012046124B98479DF8073012
S1133370002BE4D00126E2E70134AC42EAD20E4B42
S1133380984794F900301844437813F0030FF3D1AD
S1133390094B9847237840FA83F0427812F0040FDF
S11333A0EAD12B2BE8D05F2BE6D000233B70D1E78A
S11333B0618D0000FD320000C5870000F0B583B0C8
S11333C005460C4603238DF8073017467AB180B1C1
S11333D089B100268EB1DEB13EBB01233B70237858
S11333E01BB32A7893421ED101340135F7E7012635
S11333F0F0E70126EEE70126ECE70DF10701284688
S11334000B4B98479DF80730002BE4D00126E2E7E8
S11334100DF107012046064B98479DF80730002B15
S1133420DAD00126D8E700233B70304603B0F0BD64
S1133430FD32000030B583B003238DF80730054614
S113344078B103687BB100247CB13CB93A21286887
S11334500C4B9847286098B101302860204603B08F
S113346030BD0124F0E70124EEE70DF107012868DF
S1133470054B98479DF80730002BE6D00124E4E77C
S11334800124EBE7618D0000FD32000030B583B00C
S113349003238DF80730044638B103683BB1002597
S11334A03DB19DB1284603B030BD0125F8E70125A3
S11334B0F6E70DF1070120680B4B98479DF807309C
S11334C0002BEED00125ECE70133236023681B7841
S11334D0002BE7D0054B984723681A7810444278AC
S11334E012F0080FF0D1DDE7FD320000C5870000BF
S11334F0F0B583B003238DF80730064628B10027C2
S11335002FB1FFB9344600250DE00127F8E70DF18E
S1133510070130460D4B98479DF80730002BF0D03B
S11335200127EEE7013423785BB1094B98472378F0
S11335301844427812F0080FF4D173550135ADB236
S1133540F0E77355384603B0F0BD00BFFD3200000C
S1133550C587000030B583B003238DF807300446D7
S113356028B100252DB1CDB9214600220DE0012559
S1133570F8E70DF1070120460A4B98479DF80730FC
S1133580002BF0D00125EEE701310B782BB1222B73
S1133590FAD0A354013292B2F6E7A354284603B0FA
S11335A030BD00BFFD3200002DE9F04383B00E466C
S11335B0174603238DF807300546C0B1C9B1D2B10F
S11335C00368D3B10024D4B14CBBD5F80080404685
S11335D01F4B98471FFA80F998F8002033789A42D5
S11335E018D0314640461B4B9847064619E0012443
S11335F0E9E70124E7E70124E5E70124E3E70DF126
S113360007012868144B98479DF80730002BDBD03E
S11336100124D9E7002388F800302E6801E0002651
S1133620B1468CB930460A4B984783B2994508D9BC
S11336302B6813FA80F35B781BB1013030442860A7
S113364001E0304428603E60204603B0BDE8F083CA
S1133650918D0000658E0000FD32000008B5034620
S113366018B121B1002020B108BD0120FBE70120E1
S1133670F9E718460A460249024B9847F4E700BFA7
S113368094C10000A93500002DE9F04383B00D4634
S11336901646994603238DF80730074678B189B159
S11336A0B9F1000F11D04FF00008B8F1000F0FD09E
S11336B0B8F1000F2CD1002489F8004016E04FF037
S11336C00108F2E74FF00108EFE74FF00108ECE7DB
S11336D00DF107013846104B98479DF80730002B31
S11336E0E6D04FF00108E3E70134E4B2B4420FD26C
S11336F00DF1060255F824103846084B9847002867
S1133700F2D19DF80630002BEED0012389F8003069
S1133710404603B0BDE8F083FD320000BD33000035
S113372070B50C46064658B161B14FF4807120461D
S11337300F4B9847FF2807D800253DB1284670BD98
S11337400125FAE70125F8E70125F6E72046094BAC
S113375098470130084B9847306020B90225EDE7BF
S113376000F8013B01342378002BF9D10370E5E71D
S1133770EF8D0000918D0000FD64000030B583B032
S11337800023019368B105466AB114460A4601A9AB
S1133790074B9847019B9D4207D02060002003B04F
S11337A030BD0120FBE70120F9E70520F7E700BF62
S11337B011900000012343717047C0F8FC11704759
S11337C010B598B1F9B10B68EBB1CB68DBB14B68BC
S11337D0CBB18B68BBB11AB313680BB39368FBB15D
S11337E01369EBB19369DBB1002010BD40F289137A
S11337F0124A13491348144CA0471448A0471448CC
S1133800A047012010BD4FF4C8730C4A0C490D4861
S11338100D4CA0470F48A0470D48A047052010BDF8
S11338204FF4CC73054A06490648074CA0470A489A
S1133830A0470748A047052010BD00BFDCCB00000F
S113384020B2000050A10000995B0000FCCC0000F5
S1133850A0DC000020CD000060CD000010B50446BF
S11338600A4B9847002313B1094B984710BD1946DA
S1133870084A52F82320A24202D00133DBB2F2E715
S11338800022044B43F82120EEE700BFA5610000AD
S1133890E96100003403002070B50F4B9847002302
S11338A023B100240D4B9847204670BD1D460C4A99
S11338B052F8232012B10133DBB2F1E7084E341D74
S11338C040F6581202FB034400212046054B98475A
S11338D046F82540E6E700BFA5610000E961000065
S11338E0340300204F88000008B500210830014B44
S11338F0984708BDA154000008B50830014B98470B
S113390008BD00BFE554000070B5044678B100F16D
S113391008063046144B9847237933B100253046C6
S1133920124B98472DB1284670BD0325F7E70125B2
S1133930F8E704F1080630460B4B984763790BB956
S1133940A3796BB14FF4E473094A0A490A480B4D51
S1133950A847A27961790A48A8470A48A8470A25CE
S11339603046024B9847DEE7055500001555000028
S1133970F0CB000020B2000050A10000995B0000D1
S1133980A0CD0000A0DC000088B138B504460128B1
S11339900FD040F2E713084A08490948094DA847DF
S11339A021460948A8470948A8470A2038BD0020ED
S11339B07047072038BD00BF10CC000020B20000C3
S11339C050A10000995B0000CCCD0000A0DC0000F9
S11339D0F8B5002830D0044600F108073846244BD7
S11339E098472046234B98472046234B984700216D
S11339F02046224B98472046214B98472149204690
S1133A00214B98472046214B9847054628B9204921
S1133A102046204B98470546B8B93DB328461E4B6F
S1133A20984705461DB90123237100236371384665
S1133A301A4B98472846F8BD4FF0800383F311884A
S1133A40BFF36F8FBFF34F8FFEE7CD23144A1549A1
S1133A501548164EB0471648B0471648B04720469A
S1133A60154B98472046154B9847D6E70025D9E7CC
S1133A7005550000C1440000CD2A0000512D00006E
S1133A80F12A0000B5370000BB370000994400005C
S1133A90BD43000031500000893900001555000075
S1133AA030CC000020B2000050A10000995B00005F
S1133AB0F4CD0000A0DC0000255200008943000082
S1133AC088B138B5044601280FD040F20523084ACE
S1133AD008490948094DA84721460948A847094803
S1133AE0A847022038BD00207047062038BD00BF1B
S1133AF038CC000020B2000050A10000995B000007
S1133B0010CE0000A0DC000038B5431EDBB20F2B42
S1133B1001D8002038BD044640F29D23054A0649D9
S1133B200648074DA84721460648A8470648A8471F
S1133B30052038BDA8CC000020B2000050A1000030
S1133B40995B00000CCF0000A0DC000003460A468D
S1133B5049B1002068B9632B0FD09BB21F2B04D945
S1133B600023052006E00520F4E75B00713B1BB24F
S1133B7000E0002300B913807047014BFAE700BF4F
S1133B800080FFFF0A4649B100237BB9632812D0A5
S1133B9081B2072904D90021052308E00523F4E7AD
S1133BA0064901EB4000B0F9081100E0002103B917
S1133BB01180184670470249F9E700BFB8CB0000EE
S1133BC00080FFFF20B1D0F854390B60002070470B
S1133BD00120704758B138B50346D0F8B8502DB11C
S1133BE014460846D3F8BC202146A84738BD704780
S1133BF058B138B50346D0F8C0502DB11446084624
S1133C00D3F8C4202146A84738BD704758B138B509
S1133C100346D0F8C8502DB114460846D3F8CC203A
S1133C202146A84738BD704748B108B50346D0F8C7
S1133C30D0201AB10846D3F8D410904708BD704775
S1133C4048B108B50346D0F8D8201AB10846D3F8CD
S1133C50DC10904708BD704738B548B10C460B29B5
S1133C6013D801F5127200EB8203586868B138BDAD
S1133C7040F28E330C4A0D490D480E4CA0470E48B5
S1133C80A0470E48A047002038BD4FF46573064A8C
S1133C9006490748074DA847A1B20948A84707485D
S1133CA0A8470020E3E700BFD0CC000020B200000A
S1133CB050A10000995B0000CCA30000A0DC000030
S1133CC03CCF00002DE9F047074688461646674B6F
S1133CD098470446002837D04FF46C73644A65490A
S1133CE06548664DA8476648A8476648A847002522
S1133CF0002C54D00026002C64D04FF00008002C77
S1133D0073D04FF00009002C00F082804FF0000ABD
S1133D10002C00F09180002C00F0A380BAF1000F79
S1133D2040F08F80B9F1000F40F08F80B8F1000FA0
S1133D3040F08F80002E40F09080002D00F09280A3
S1133D402846514B98478DE0504B98470546C8B1DB
S1133D50034643F8F48B31462036D1F800C0D1F83D
S1133D6004E08868CA68C3F800C0C3F804E0986037
S1133D70DA6010311033B142EFD108684A68186034
S1133D805A60B5E74FF46E73394A3A493A483B4CA6
S1133D90A0473F48A0473B48A0470624A8E7284639
S1133DA03C4B984706460028A5D140F2CA33304A16
S1133DB030493148314CA0473748A0473148A047E3
S1133DC00B2498E72846354B98478046002896D11F
S1133DD040F2D733264A27492748284CA047304881
S1133DE0A0472848A0470B2489E728462D4B98472D
S1133DF08146002887D14FF479731D4A1D491E4816
S1133E001E4CA0472848A0471E48A0470B247AE729
S1133E102846264B9847824600287FF479AF40F223
S1133E20F133134A13491448144CA0472048A047BF
S1133E301448A0470B246BE728461E4B98470446BA
S1133E4069E728461C4B98476CE728461B4B984764
S1133E506CE728461A4B98476CE72846194B984755
S1133E606BE73D602046BDE8F08700BFC137000026
S1133E70E8CC000020B2000050A10000995B0000D3
S1133E8070CF0000A0DC00005D380000993800000D
S1133E90A0CF0000E9380000C4CF0000A92A000028
S1133EA0F0CF0000A14500001CD00000B94500007F
S1133EB048D00000D1390000E5450000D14500009C
S1133EC0852A0000F938000084B030B585B0054675
S1133ED009AC84E80E000F9B03930CAB93E8070036
S1133EE08DE8070094E80E002846034CA04705B06F
S1133EF0BDE8304004B070471944000084B030B5C8
S1133F0085B0054609AC84E80E0041F2883303937A
S1133F100CAB93E807008DE8070094E80E002846F0
S1133F20034CA04705B0BDE8304004B0704700BF63
S1133F30C93E000010B504460D4B984728B103460E
S1133F40002453B173B1184610BD246804F654110B
S1133F502046084B98470346F3E72046064B98470C
S1133F600346EFE72046054B98470346EBE700BFBF
S1133F70C53C0000150F0000750F000085100000FF
S1133F8008B500F58E70014B984708BD0555000033
S1133F9008B500F58E70014B984708BD1555000013
S1133FA0F0B583B000238DF80730002945D00D46C5
S1133FB0044600F5BA763046224B98472B7823B353
S1133FC0D4F8D0711FB19DF80730002B2BD00023FB
S1133FD01A460DF10701D4F8CC011B4CA047012867
S1133FE00CD002238DF807307423184A1849194855
S1133FF0194CA0471948A0471948A0473046194B07
S113400098479DF8070003B0F0BD62230F4A10499A
S11340101048114FB8471448B8471148B84702230D
S11340208DF80730CCE7B4F8E831D4F8E421294618
S11340302046B8478DF80700C9E706238DF80730F6
S1134040DFE700BF05550000E56A000074D00000FA
S113405020B2000050A10000995B000030D20000A3
S1134060A0DC000015550000F8D10000F8B50746A3
S11340700E460D4CA047054636683046A047044618
S11340802A46854228BF024631463846074B9847A0
S1134090034618B9A54201D002D901231846F8BD38
S11340A04FF0FF33FAE700BF918D0000A18D0000AF
S11340B0F8B50F46066830460C4CA04705463F68E5
S11340C03846A04704462A46854228BF0246394658
S11340D03046074B9847034618B9A54201D002D988
S11340E001231846F8BD4FF0FF33FAE7918D000025
S11340F0A18D000008B5014B984708BD293C00007C
S1134100F0B583B004460D461746134B00930823BD
S1134110D0F8F820D0F8F4102846104EB047A8B1D3
S113412043682BB1394620469847002003B0F0BDC0
S113413040F2E1130A4A0B490B480C4CA0472946AC
S11341400B48A0470B48A0470220EFE7394620461A
S1134150094B98470020E9E76D40000031870000D3
S113416090D0000020B2000020B00000995B000055
S113417078D20000A0DC0000F5400000F0B583B068
S113418005460C4601910B782B2B03D00020D8B1A7
S113419003B0F0BD481C02AA42F8040D0D490E4BB1
S11341A09847064610B104460020F0E79A230B4ACC
S11341B00B490C480C4FB84721460C48B8470C48EB
S11341C0B84734460320E2E7019A21462846094BC2
S11341D09847DDE7CCAB00000B8F0000A4D00000B3
S11341E020B2000050A10000995B000098D20000AA
S11341F0A0DC00000141000030B583B0002301932E
S1134200F1B10C46054601A80F4B984778B1C1237C
S11342100E4A0F490F48104DA84720460F4B9847A8
S113422001460F48A8470F48A847022409E001990E
S113423028460D4B9847044601980C4B984700E0DC
S11342400624204603B030BD21370000B4D000005E
S113425020B2000020B00000995B0000918D0000A6
S1134260E0D20000A0DC00007D41000031660000C7
S113427084B0F0B583B0044609A880E80E0000239A
S11342808DF8073061B30D460C9BC4F8D0310D9BFB
S1134290C4F8E431BDF83830A4F8E831C4F8EC11BE
S11342A00B9B9DF8282020462B4EB047064618B39A
S11342B0E6232A4A2A492B482B4DA8472B48A847CE
S11342C02B48A847062384F818390023C4F8D031B2
S11342D0C4F8EC31304603B0BDE8F04004B0704798
S11342E0D7231E4A1E491F481F4CA0472148A047F8
S11342F01F48A0470326EDE74FF47A720F9B02FB99
S113430003F21D4BA3FB023292090DF10701D4F80D
S1134310CC011A4B984701280DD0FB230F4A1049B2
S11343201048114EB0472A4601211548B04710489D
S1134330B0470126C6E79DF80760002EC2D0F523DA
S1134340064A07490748084FB8472A4631460D48E8
S1134350B8470748B847B5E729510000C8D000005E
S113436020B2000050A10000995B000030D300008F
S1134370A0DC000008D30000D34D62104D6F000094
S113438074D3000048D3000088B110B50446D0F8B7
S1134390CC315BB1064B9847D4F8CC01054B984718
S11343A00023C4F8CC312046034B984710BD704716
S11343B0813F000005730000913F0000D0B138B583
S11343C00C4679B1012911D040F215230A4A0B4950
S11343D00B480C4DA84721460B48A8470B48A84753
S11343E0062038BD11460A4B984738BD1146094B83
S11343F0984738BD0820704720D1000020B2000043
S113440050A10000995B0000B0D40000A0DC0000C3
S1134410A13F0000F941000084B030B585B009AC7B
S113442084E80E00C0B10446124B98470F9B0393D7
S11344300CAB93E807008DE8070009AB0ECB2046D0
S11344400D4DA847054620460C4B9847284605B015
S1134450BDE8304004B0704740F22B23084A0949B4
S113446009480A4CA0470A48A0470A48A04708251B
S1134470ECE700BF813F000071420000913F000063
S113448038D1000020B2000050A10000995B000068
S1134490E0D40000A0DC000058B110B504460022AE
S11344A001210846054B9847C4F8CC0118B10020F7
S11344B010BD02207047022010BD00BF496A0000F1
S11344C0002858D02DE9F04383B0D0F8F450002DE3
S11344D053D0D0F8F8703FBB082003B0BDE8F08398
S11344E040F2DF23264A27492748DFF8AC80C0473B
S11344F055F8343055F8362000924A462146234870
S1134500C0472348C0474FF0000834467B1E9C42F6
S11345100ED2661C05EBC60105EBC4001D4B984783
S1134520B0F10009DCDAF0E74FF001080024EDE710
S1134530B8F1000F17D140F2E723114A114912488C
S1134540154CA0471548A0471148A0470620B8F1CC
S1134550000F0ED14FF0800383F31188BFF36F8FE8
S1134560BFF34F8FFEE70020F1E70133BB42FCD3DA
S1134570B3E70023FAE7082070470820ADE700BF3F
S1134580E0D1000020B2000050A1000010D60000CD
S1134590A0DC0000B1400000995B000030D60000B0
S11345A030B108B5002100F58E70024B984708BD64
S11345B000207047A154000030B108B5002100F577
S11345C0BA70024B984708BD00207047A154000000
S11345D028B108B500F58E70014B984708BD7047A7
S11345E0E554000028B108B500F5BA70014B9847AE
S11345F008BD7047E5540000401A704700239342F9
S113460017D210B4CC5C34B10D2C04D00A2C02D0D7
S113461001339342F6D3934207D3C0F81019C0F87C
S1134620202900205DF8044B70470022CA54012061
S1134630F8E7934205D3C0F81019C0F820290020E8
S113464070470022CA540120704700002DE9F0434E
S113465083B016689EB1984615460F460446D0F8B6
S1134660DC3123B3D0F8E0019847064680B9012035
S113467058B12A68394620462A4B984705E0C0F8C5
S113468010190023C0F82039184603B0BDE8F083A0
S11346904FF44673244A25492548DFF8A080C047D3
S11346A031462448C0472448C0470020E0E7D0F8FA
S11346B0D491B9F1000F31D000F61C130093434696
S11346C03246D0F8D801C847814680B9D4F81C399D
S11346D033B3B8F1000F01D00120C9E74FF08003D4
S11346E083F31188BFF36F8FBFF34F8FFEE7052865
S11346F00DD040F23B330C4A0C490D480F4EB047E5
S113470049460F48B0470C48B0470020B0E7C4F80A
S113471010792B68C4F820390020A9E70120A7E705
S11347200120A5E7FD4500005CD6000020B2000092
S113473050A1000024D70000A0DC0000995B000019
S11347404CD7000030B583B004464FF0FF330093DC
S1134750002301220521D0F8F801054DA84710F0E7
S1134760040F02D1012384F8F03103B030BD00BF3F
S1134770955D000000B583B000230193D0F8F801E3
S113478070B101AA0821084B9847012801D00120E3
S113479007E0019B012B01D0062002E0002000E08D
S11347A0022003B05DF804FB2960000068B138B54D
S11347B00546406803E00468044B984720460028F7
S11347C0F9D12846014B984738BD7047316600003F
S11347D038B5044600F2CD25D0F82029D0F81019B8
S11347E02846074B9847D4F820092318002283F859
S11347F0CD2200F532702044C4F81059053038BD7C
S11348001B8800002DE9F04784B006468946002342
S11348100393D0F8207900F2CD2AD0F810591DB1B5
S1134820AA4501D007B12AB36DB305EB07087C4252
S113483051462846244B9847241A04F5C862002A96
S11348402EDD33689C6803AB00934FF47A734146C2
S1134850D6F8F401A047039BF3B1002208F8032023
S1134860039B1F44C9F80070C6F82029284604B0E9
S1134870BDE8F087154B98478046D6F82029C2F545
S1134880C8625546DBE707F53278B04408F10508FD
S1134890C7F5C8625546D2E70025C9F80050E5E7D8
S11348A04FF415730A4A0B490B480C4CA0470C48AB
S11348B0A0470C48A0470023C9F80030C6F82039A7
S11348C0C6F81039D2E700BFF9450000D14700000F
S11348D06CD6000020B2000050A10000995B0000DB
S11348E070D70000A0DC000038B505460C4608204F
S11348F00C4B984738B10146456000230360626859
S11349005AB9606038BD4FF0800383F31188BFF358
S11349106F8FBFF34F8FFEE71A461368002BFBD14E
S1134920116038BDFD64000008B5014B984708BD0F
S1134930E94800002DE9F04107460D4690461E4621
S11349401968144B9847069C241AD5F81C299442DC
S113495006D2C5F81079C5F820490D20BDE8F081CC
S1134960414638460C4B9847D5F81C391F443760EC
S1134970D5F81C39E41A079B1C600020C5F81C09F3
S11349803368C5F81039079B1B68C5F82039BDE8A2
S1134990F08100BFF94500002949000070B584B0DA
S11349A01646089D04AC002244F8042D0A682968C0
S11349B00194009101463046044CA047039B1BB16F
S11349C02B60012004B070BD0020FBE735490000D6
S11349D0F8B50F46D0F81051D0F80C610024AC4261
S11349E007D256F824103846044B984718B10134BE
S11349F0F5E70020F8BD0120F8BD00BF7D8D000063
S1134A0070B582B00446164600238DF807308DF841
S1134A100630D0F80C31E3B10D46244B984730B141
S1134A20002301200BB902281CD002B070BD0DF187
S1134A30070128461E4B98479DF8073063B176B1AD
S1134A400DF10602314628461A4B984703460220C8
S1134A50E8E705230220E5E700230220E2E700233C
S1134A600220DFE79DF8073043B194F81839062B8C
S1134A7011D09DF8063083B90120D6E794F818398F
S1134A80062B00D05EB1052B0BD0022B0BD0032BD1
S1134A90CBD10020C9E70120C7E70020C5E70020EB
S1134AA0C3E70020C1E70020BFE700BFD1490000F1
S1134AB029330000BD33000008B50820074B984790
S1134AC040B94FF0800383F31188BFF36F8FBFF3B6
S1134AD04F8FFEE700220260426008BDFD640000C3
S1134AE038B504460D46044B9847421C29462046D7
S1134AF0024B984738BD00BF918D0000E948000083
S1134B0038B50446013A032A33D8DFE802F0021626
S1134B102A2E4B686BB1CC23184A194919481A4DEF
S1134B20A8470B2221461948A8471948A8470B2033
S1134B3038BD184B98470C2038BD4B686BB1DE2349
S1134B400E4A0F490F48104DA8470B222146124820
S1134B50A8470F48A8470B2038BD0E4B98470C2098
S1134B6038BD0C4B98470C2038BD0A4B98470C2095
S1134B7038BD084B98470D2038BD00BF80D60000D3
S1134B8020B2000050A10000995B0000D4D70000BF
S1134B90A0DC0000E14A00000CD800002DE9F04F31
S1134BA087B0044602911646039300238DF817300C
S1134BB0D0F8FC50002D45D00846D4F80471002FDD
S1134BC043D0D4F808B1D4F800910DF11703D4F808
S1134BD01821D4F81411DFF8C0A0D0479DF817307D
S1134BE0ABB1012333704FF000089DF8173073BB4D
S1134BF00DF117034A4629460298274DA8479DF808
S1134C001730BBB14FF0000886F800801FE00DF1AB
S1134C1017035A4639460298DFF87C80C0479DF84E
S1134C20173023B1012333704FF00008DDE74FF054
S1134C300208DAE7109B039A31460298174DA847F9
S1134C40804604E04FF0020801E04FF002089DF8AE
S1134C5017300BB133781BB1404607B0BDE8F08F75
S1134C6040F271130E4A0F490F48104DA847D4F86B
S1134C70EC1159B1109B5BB1CDF80080109B029AE6
S1134C800B480A4CA0470B48A047E5E70A49F1E75F
S1134C90094B1093F0E700BF89360000014B000078
S1134CA0A0D6000020B2000050A10000995B0000D3
S1134CB048D80000A0DC0000B8A10000F0B583B023
S1134CC00446164690F81939012B1DD00D46002BC9
S1134CD046D10B6803B394F81839D4F81429009218
S1134CE02A6831462046324EB0470646C0B9D4F849
S1134CF000321BB12A6800212046984728682D4BB2
S1134D00984700232B604CE0D0F80032002B4DD0A4
S1134D1001219847002644E0274B98472860DAE7AA
S1134D200D283ED00C283CD040F24162002104F210
S1134D30CD20224B98470027C4F8107928681D4BD2
S1134D4098472F604FF431731D4A1E491E481F4D6A
S1134D50A847D4F8EC111E48A8471E48A84720E0ED
S1134D604FF43373164A17491748184FB847D4F805
S1134D70EC21CAB131461848144EB0471548B04723
S1134D8040F24162002104F2CD200C4B98470026EA
S1134D90C4F81069C4F820692868064B98472E6047
S1134DA00626304603B0F0BD0C4AE3E70026F8E7D8
S1134DB09D4B0000AD470000B94A00004F88000039
S1134DC0B8D6000020B2000050A10000995B00009A
S1134DD08CD80000A0DC0000C0D80000B8A10000FE
S1134DE0F8B506460D4614461F4611682868124B4E
S1134DF098472A68431C1A442A6023681B1A013BFB
S1134E0023602B68C6F810392368C6F8203917B90F
S1134E1096F819390BB10120F8BD06F2CD272268A6
S1134E2029683846054B98472F60C6F810792368DF
S1134E30C6F82039EFE700BFEF8D00001B880000A3
S1134E4070B586B004460D46002105910492039383
S1134E50012313E001320492013B0393039B2BB122
S1134E60049A11780D29F5D00A29F3D005AB03AAC9
S1134E70049920461C4EB047034618B9002BEDD1C7
S1134E8006B070BDD4F8142904992046174B9847EE
S1134E9084F81909049A29462046154B98470D2889
S1134EA004D0C0B10C2816D00023E7E7D4F81C398D
S1134EB04BB103AB009304AB059A294620460D4E33
S1134EC0B0470346DAE7034603AA04A920460A4E7C
S1134ED0B0470346D2E7034603AA04A92046064E78
S1134EE0B0470346CAE700BF4D460000014A000030
S1134EF0BD4C00009D490000E14D000070B586B036
S1134F0005460C4600230593049303930A6804A9F9
S1134F10104B98470590049B2BB1D5F81C292AB94E
S1134F200393039B5BB9049806B070BD03AA019276
S1134F30009305AB22682946074EB047F1E70021EC
S1134F40059AD154039B059A21462846034CA04751
S1134F50E9E700BF0548000035490000414E000064
S1134F6030B585B0044600230393036833B11B684E
S1134F7000F5FA72014623489847B0B140F2254340
S1134F80214A22492248234DA8472348A8472348B9
S1134F90A8470421D4F8F801214B9847D4F8FC31F0
S1134FA00BB12046984705B030BD0121D4F8F80173
S1134FB01B4B98474FF0FF330093002301220A2133
S1134FC0D4F8F801174DA84710F0020F09D110F0DA
S1134FD0080FEFD003A92046134B98470028F9D1B6
S1134FE0E8E70398114B9847002503952368DB688D
S1134FF0D4F8F4019847C4F8F451D4F8FC312046AD
S11350009847C6E775470000C8D6000020B20000E4
S113501050A10000995B0000F8D80000A0DC00005B
S11350201D5F0000955D0000FD4E0000AD470000CF
S113503070B50E46044640B3002380F8F0310623D1
S113504080F818392A4B9847C4F8F80180B1002534
S1135050EDB15DB154B10023C4F80032D4F8F801C5
S113506020B1244B98470023C4F8F831284670BD7A
S113507040F25943204A21492148224DA847224859
S1135080A8472248A8470925E2E70825E0E7C4F82D
S113509000620F21D4F8F8011D4B98474FF40063C8
S11350A0052221461B481C4EB04760B940F27943A3
S11350B0114A12491248134DA8471848A8471348E3
S11350C0A8470925C5E72046154B984794F8F031C1
S11350D0002BBED140F27343074A08490848094DE2
S11350E0A8471048A8470948A8470225B1E700BFC8
S11350F0715D0000D55F0000DCD6000020B2000026
S113510050A10000995B000010D90000A0DC000051
S1135110CD5E0000614F0000F953000044D9000047
S1135120454700002CD900002DE9F04784B09A4689
S113513000230393F0B10D4691460446066836B346
S1135140D0F8F4711FB300292ED008462B4B984792
S11351508046C82835D940F2B643294A29492A4805
S11351602A4CA0472A48A0472A48A047062004B052
S1135170BDE8F08740F2A343214A22492248234C48
S1135180A0472548A0472348A0470820EFE74FF44D
S113519095631B4A1B491C481C4CA0471F48A04749
S11351A01C48A0470820E2E740F2AD43144A1549E1
S11351B01548164CA0471648A0471648A047062095
S11351C0D5E7C4F814A984F8189900F1010A04F584
S11351D00179024629464846114B984744440D2319
S11351E084F80432746803AB00934FF47A73524624
S11351F049463846A0470020B9E700BF918D00001A
S1135200F0D6000020B2000050A10000995B00001D
S1135210D0D90000A0DC000060D9000094D90000BF
S1135220C58D000040B310B5044690F8F03113B3B7
S1135230D0F8F801D0B10221104B98470021D4F8DE
S1135240F8010F4B984707E00A200E4B98470021BE
S1135250D4F8F8010A4B984710F0040FF4D0D4F8AE
S1135260F801094B98470023C4F8F8310023C4F827
S1135270003284F8F03110BD704700BF1D5F00009C
S1135280CD5E0000B17B0000D55F000008B5094B7E
S1135290984758B10020084B984781000748084BAD
S11352A098474FF47A70074B9847F3E70648044B46
S11352B09847EFE74D550000657F0000B0DA000025
S11352C0995B0000B17B000090DA0000034B03609F
S11352D064330B6040231360704700BF900C0020C0
S11352E010B4064B03F5B274046003F5E4730B6069
S11352F0802313605DF8044B704700BF900C0020BE
S11353007047704700B583B000230193024B984760
S1135310019003B05DF804FBB966000010B582B0DB
S1135320154B98474FF4806200214FF48070134B63
S11353309847012800D0FEE7114B01930123009305
S1135340002340F245120F490F48104CA047012892
S113535000D0FEE70E4B0193012300930023A0220B
S11353600C490D48094CA047012800D0FEE70B4B1F
S11353709847002002B010BDD1020000315B00004C
S113538058100020D0DA00008D520000557700003C
S11353905C100020D8DA000051050000C17800003C
S11353A010B504464368006898472046024B984766
S11353B00020024B984710BD31660000CD770000F5
S11353C008B548B1436D012B0FD0094B984701280C
S11353D014BF0020012008BD4FF0800383F311881F
S11353E0BFF36F8FBFF34F8FFEE7024B9847EEE793
S11353F0D9700000B972000000282FD02DE9F043C5
S113540083B081461E46174688460820194B9847A4
S1135410054600282BD00124E4B1C5F80490C5F852
S113542000800023019300972B46B2B2124913481F
S1135430134EB04701280DD07223124A1249134863
S1135440134CA0471348A0471348A0472846134BC2
S113545098470024204603B0BDE8F0834FF0800352
S113546083F31188BFF36F8FBFF34F8FFEE70024E0
S1135470D2E700BFFD64000000DB0000A153000080
S113548055770000E0DA00003CA1000020B00000E5
S1135490995B000010DB0000A0DC00003166000016
S11354A038B560B104460D4691B1014604200C4B59
S11354B0984795B10123636500B1012038BD4FF0D1
S11354C0800383F31188BFF36F8FBFF34F8FFEE721
S11354D001460120024B9847EBE700236365EBE7A5
S11354E0E16C000008B540B94FF0800383F31188E4
S11354F0BFF36F8FBFF34F8FFEE7014B984708BD93
S11355000573000008B54FF0FF31014B984708BD03
S1135510C153000048B110B5436D012B0ED00023D8
S11355201A461946074CA04710BD4FF0800383F379
S11355301188BFF36F8FBFF34F8FFEE7024B98477D
S113554010BD00BFE56A0000096D000030B5D5B09C
S11355500024ADF84C413222214646A85C4DA847B0
S113556085225C4924A85C4B98474522214612A811
S1135570A8474022214602A8A84701238DF80730F6
S113558056495748574B98470546002842D0002DA6
S113559042D124AA544B1978514B1868534B98475D
S11355A00546002D3CD0002D40D0002D69D0002DA3
S11355B069D0002D6FD0002D77D0002D40F086806B
S11355C09DF84930012B7BD0002055B030BD9DF8AB
S11355D04D219DF84C114648464B98474FF4FA70BC
S11355E0454B98470134E4B2042CD0D853A93C4B22
S11355F01868424B984705460028E8D19DF84C317D
S1135600012BE4D19DF84D31002BE0D13C48394BBE
S11356109847BCE70024E7E73A48364B9847C0E789
S11356202F4B1868384B98470546BCE72C4B186835
S1135630364B98470546B8E79DF81B212946344860
S11356402C4B98470134642C17D84FF47A702A4BAA
S11356509847642CABD846A9214B18682D4B984722
S113566005460028E8D19DF81B31012B01D0052BFC
S1135670E2D129481F4B984799E728481D4B984782
S1135680E3E70024E5E7184B1978154B1868244B19
S1135690984705468DE7402302AA13490978104824
S11356A00068204CA047054685E70DF107030E4A24
S11356B0127812A90A4800681B4CA04705467CE7EB
S11356C002A91A480B4B984701207EE700207CE78B
S11356D04F8800002CDB000005880000C00000207B
S11356E060100020A91A0000A00000202D1800005E
S11356F0D4DB0000995B0000B17B0000F9190000C5
S1135700B4DB00000CDC000005230000F9220000DB
S113571058DC00001D23000030DC0000A4DC000085
S11357205D1700001123000035190000D4DC0000CF
S113573000487047A40000200020704770B582B074
S11357400D461646A0B1037A13F0010F04D00024CD
S113575084B1204602B070BDB723144A14491548D9
S1135760154CA0471548A0471548A0470124EFE76A
S11357700224EDE701A91348134B984701984368A5
S1135780B2B229469847051E02DB069B1D60E0E77E
S1135790C123064A06490748074CA04729460B4837
S11357A0A0470748A0470124D3E700BF0CDD000051
S11357B03CA1000050A10000995B000048DD0000FE
S11357C0A0DC0000E80C01208D0800007CDD000056
S11357D0002830D030B583B015460C46037A13F058
S11357E0010F0FD001A91548154B9847019803687C
S11357F0AAB221469847041E10DB069B1C600020B9
S113580003B030BD9C230F4A0F491048104CA047E9
S11358101048A0471048A0470120F1E7A423094AF3
S113582009490A480A4DA84721460C48A8470A488E
S1135830A8470120E4E70220704700BFE80C0120DC
S11358408D08000020DD00003CA1000050A10000F4
S1135850995B000098DD0000A0DC0000CCDD0000B6
S11358602DE9F04180460F461646154B98470446ED
S113587020B3037A13F0010F16D07E23114A124984
S11358801248134DA8471348A8471348A8470120B6
S113589008B9C4F8008028B9E7603460237A43F07B
S11358A001032372BDE8F081002020606060A060E5
S11358B0E0606061A061094B2361E9E70120E7E74B
S11358C03157000034DD00003CA1000050A100006D
S11358D0995B0000E4DD0000A0DC0000C0000020B3
S11358E070B582B0054601A90648074B9847019C4C
S11358F026682846054B984782B229462046B04779
S113590002B070BD7C0C01208D080000918D000058
S113591000B583B0002301934FF0FF3201A9064B79
S11359201868064B98470128F6D10198044B98470C
S11359300198044B9847EFE7641000204D6F000076
S1135940E15800003166000038B50C46044DA84704
S1135950844201D8601E38BD002800DA002038BD1A
S1135960959000000CB410B582B004AB53F8042B2E
S11359700193034CA04702B0BDE8104002B0704749
S113598049590000F0B585B01E460023039304284E
S113599008D94FF0800383F31188BFF36F8FBFF3EF
S11359A04F8FFEE704460D4617468EB14F4B1B68DA
S11359B0BBB14FF400704E4B98470390002800F0A1
S11359C08F80013C032C15D8DFE804F0403A3C3EBC
S11359D04FF0800383F31188BFF36F8FBFF34F8FB2
S11359E0FEE74FF0800383F31188BFF36F8FBFF39B
S11359F04F8FFEE700235BB33E4A4FF400713E4CE9
S1135A00A047044675B3B4F5007F2BD25C21284629
S1135A103A4B9847F0B1451C00972B46384AC4F5D9
S1135A20007103982044344DA84724181AD14FF02C
S1135A30800383F31188BFF36F8FBFF34F8FFEE7AB
S1135A40304BD8E7304BD6E7304BD4E7304BD2E776
S1135A500024D7E72F212846284B98470028DBD07D
S1135A60451CD9E7B4F5007F08D20A9B3246C4F539
S1135A70007103982044274DA84704443046264B20
S1135A809847012811D9022224493044244B9847CD
S1135A9058B1B4F5007F08D2204B224AC4F50071F6
S1135AA003982044144DA8470444B4F5007F08D358
S1135AB04FF0800383F31188BFF36F8FBFF34F8FD1
S1135AC0FEE70022039B1A5564B1134603A9074855
S1135AD00068154CA047012802D00398134B98473F
S1135AE005B0F0BD0398114B9847F9E76410002006
S1135AF0FD64000024DE000065590000078E0000EC
S1135B002CB000000CDE000014DE00001CDE0000DF
S1135B10D09C000049590000918D0000A0DC0000D9
S1135B20A18D0000F4BF0000E56A000031660000AA
S1135B30134B1B680BB10020704730B583B013467C
S1135B400D4604460022042118460E4B98470C4B80
S1135B50186080B100230193009522460A490B483E
S1135B600B4CA047012808D0054B1868094B9847EF
S1135B70002003B030BD0020FBE70120F9E700BF9F
S1135B8064100020496A00002CDE00001159000056
S1135B9055770000057300000FB410B584B006AA51
S1135BA052F8043B03920092002211461046034C23
S1135BB0A04704B0BDE8104004B070478559000008
S1135BC058B908B50B4611461846054B98470028A6
S1135BD000DB08BD4FF0FF3008BD4FF0FF307047C9
S1135BE0395C0000013802280BD808B50B46114671
S1135BF01846054B9847002800DB08BD4FF0FF30DE
S1135C0008BD4FF0FF3070475D5C000070B506467C
S1135C10064D2B6800219868054CA0472B6800218D
S1135C205868A047034B1E6070BD00BFD40000201D
S1135C308D8B00006810002008B5064B1B6833B13B
S1135C400A46014692B21846034B984708BD002005
S1135C5008BD00BF68100020CD05000008B5064B44
S1135C601B6833B10A46014692B21846034B984763
S1135C7008BD002008BD00BF681000209905000081
S1135C8010B5044C2046044B98472046034B9847D4
S1135C9010BD00BF7C0C0120610800000D5C0000F9
S1135CA038B505460C462B220849012C8CBF002030
S1135CB00120074B984721460120064B984728604E
S1135CC008B1002038BD6FF0130038BD34DE000089
S1135CD0B9080000A16A000010B50D4B5B68C3F35E
S1135CE0080333B1002100680A4B984750B10020E3
